{
  "_format": "hh-sol-artifact-1",
  "contractName": "DAO",
  "sourceName": "contracts/DAO.sol",
  "abi": [
    {
      "anonymous": false,
      "inputs": [
        {
          "indexed": true,
          "internalType": "address",
          "name": "previousOwner",
          "type": "address"
        },
        {
          "indexed": true,
          "internalType": "address",
          "name": "newOwner",
          "type": "address"
        }
      ],
      "name": "OwnershipTransferred",
      "type": "event"
    },
    {
      "inputs": [
        {
          "internalType": "string",
          "name": "_desc",
          "type": "string"
        },
        {
          "internalType": "uint256",
          "name": "_credit",
          "type": "uint256"
        }
      ],
      "name": "createTask",
      "outputs": [],
      "stateMutability": "nonpayable",
      "type": "function"
    },
    {
      "inputs": [
        {
          "internalType": "uint256",
          "name": "_id",
          "type": "uint256"
        },
        {
          "internalType": "address",
          "name": "_taker",
          "type": "address"
        }
      ],
      "name": "finishTask",
      "outputs": [],
      "stateMutability": "nonpayable",
      "type": "function"
    },
    {
      "inputs": [],
      "name": "getTestId",
      "outputs": [
        {
          "internalType": "uint256",
          "name": "",
          "type": "uint256"
        }
      ],
      "stateMutability": "view",
      "type": "function"
    },
    {
      "inputs": [],
      "name": "nextTaskId",
      "outputs": [
        {
          "internalType": "uint256",
          "name": "",
          "type": "uint256"
        }
      ],
      "stateMutability": "view",
      "type": "function"
    },
    {
      "inputs": [],
      "name": "owner",
      "outputs": [
        {
          "internalType": "address",
          "name": "",
          "type": "address"
        }
      ],
      "stateMutability": "view",
      "type": "function"
    },
    {
      "inputs": [],
      "name": "renounceOwnership",
      "outputs": [],
      "stateMutability": "nonpayable",
      "type": "function"
    },
    {
      "inputs": [
        {
          "internalType": "uint256",
          "name": "_id",
          "type": "uint256"
        },
        {
          "internalType": "string",
          "name": "_detailLink",
          "type": "string"
        }
      ],
      "name": "submitProposal",
      "outputs": [],
      "stateMutability": "nonpayable",
      "type": "function"
    },
    {
      "inputs": [
        {
          "internalType": "uint256",
          "name": "",
          "type": "uint256"
        }
      ],
      "name": "tasks",
      "outputs": [
        {
          "internalType": "uint256",
          "name": "id",
          "type": "uint256"
        },
        {
          "internalType": "string",
          "name": "desc",
          "type": "string"
        },
        {
          "internalType": "uint256",
          "name": "credit",
          "type": "uint256"
        },
        {
          "internalType": "bool",
          "name": "finished",
          "type": "bool"
        }
      ],
      "stateMutability": "view",
      "type": "function"
    },
    {
      "inputs": [
        {
          "internalType": "address",
          "name": "newOwner",
          "type": "address"
        }
      ],
      "name": "transferOwnership",
      "outputs": [],
      "stateMutability": "nonpayable",
      "type": "function"
    }
  ],
  "bytecode": "0x6080604052600160025534801561001557600080fd5b5061003261002761003760201b60201c565b61003f60201b60201c565b610103565b600033905090565b60008060009054906101000a900473ffffffffffffffffffffffffffffffffffffffff169050816000806101000a81548173ffffffffffffffffffffffffffffffffffffffff021916908373ffffffffffffffffffffffffffffffffffffffff1602179055508173ffffffffffffffffffffffffffffffffffffffff168173ffffffffffffffffffffffffffffffffffffffff167f8be0079c531659141344cd1fd0a4f28419497f9722a3daafe3b4186f6b6457e060405160405180910390a35050565b610f9c806101126000396000f3fe608060405234801561001057600080fd5b50600436106100935760003560e01c80638d977672116100665780638d977672146100f65780638da5cb5b14610129578063f2fde38b14610147578063f304586a14610163578063fdc3d8d71461018157610093565b806304fe2b3414610098578063230aac55146100b45780636e560436146100d0578063715018a6146100ec575b600080fd5b6100b260048036038101906100ad9190610986565b61019f565b005b6100ce60048036038101906100c99190610a3f565b610266565b005b6100ea60048036038101906100e59190610a03565b61034b565b005b6100f46104de565b005b610110600480360381019061010b91906109da565b610566565b6040516101209493929190610bf8565b60405180910390f35b61013161062b565b60405161013e9190610b62565b60405180910390f35b610161600480360381019061015c919061095d565b610654565b005b61016b61074c565b6040516101789190610bdd565b60405180910390f35b610189610756565b6040516101969190610bdd565b60405180910390f35b6101a761075c565b73ffffffffffffffffffffffffffffffffffffffff166101c561062b565b73ffffffffffffffffffffffffffffffffffffffff161461021b576040517f08c379a000000000000000000000000000000000000000000000000000000000815260040161021290610bbd565b60405180910390fd5b60006001600060025481526020019081526020016000209050600254816000018190555082816001019080519060200190610257929190610828565b50818160020181905550505050565b816002548110801561029f5750600015156001600083815260200190815260200160002060040160009054906101000a900460ff161515145b6102de576040517f08c379a00000000000000000000000000000000000000000000000000000000081526004016102d590610b9d565b60405180910390fd5b816001600085815260200190815260200160002060030160003373ffffffffffffffffffffffffffffffffffffffff1673ffffffffffffffffffffffffffffffffffffffff1681526020019081526020016000209080519060200190610345929190610828565b50505050565b61035361075c565b73ffffffffffffffffffffffffffffffffffffffff1661037161062b565b73ffffffffffffffffffffffffffffffffffffffff16146103c7576040517f08c379a00000000000000000000000000000000000000000000000000000000081526004016103be90610bbd565b60405180910390fd5b81600254811080156104005750600015156001600083815260200190815260200160002060040160009054906101000a900460ff161515145b61043f576040517f08c379a000000000000000000000000000000000000000000000000000000000815260040161043690610b9d565b60405180910390fd5b600180600085815260200190815260200160002060040160006101000a81548160ff0219169083151502179055506001600084815260200190815260200160002060020154600360008473ffffffffffffffffffffffffffffffffffffffff1673ffffffffffffffffffffffffffffffffffffffff16815260200190815260200160002060008282546104d29190610cb6565b92505081905550505050565b6104e661075c565b73ffffffffffffffffffffffffffffffffffffffff1661050461062b565b73ffffffffffffffffffffffffffffffffffffffff161461055a576040517f08c379a000000000000000000000000000000000000000000000000000000000815260040161055190610bbd565b60405180910390fd5b6105646000610764565b565b600160205280600052604060002060009150905080600001549080600101805461058f90610d96565b80601f01602080910402602001604051908101604052809291908181526020018280546105bb90610d96565b80156106085780601f106105dd57610100808354040283529160200191610608565b820191906000526020600020905b8154815290600101906020018083116105eb57829003601f168201915b5050505050908060020154908060040160009054906101000a900460ff16905084565b60008060009054906101000a900473ffffffffffffffffffffffffffffffffffffffff16905090565b61065c61075c565b73ffffffffffffffffffffffffffffffffffffffff1661067a61062b565b73ffffffffffffffffffffffffffffffffffffffff16146106d0576040517f08c379a00000000000000000000000000000000000000000000000000000000081526004016106c790610bbd565b60405180910390fd5b600073ffffffffffffffffffffffffffffffffffffffff168173ffffffffffffffffffffffffffffffffffffffff161415610740576040517f08c379a000000000000000000000000000000000000000000000000000000000815260040161073790610b7d565b60405180910390fd5b61074981610764565b50565b6000600254905090565b60025481565b600033905090565b60008060009054906101000a900473ffffffffffffffffffffffffffffffffffffffff169050816000806101000a81548173ffffffffffffffffffffffffffffffffffffffff021916908373ffffffffffffffffffffffffffffffffffffffff1602179055508173ffffffffffffffffffffffffffffffffffffffff168173ffffffffffffffffffffffffffffffffffffffff167f8be0079c531659141344cd1fd0a4f28419497f9722a3daafe3b4186f6b6457e060405160405180910390a35050565b82805461083490610d96565b90600052602060002090601f016020900481019282610856576000855561089d565b82601f1061086f57805160ff191683800117855561089d565b8280016001018555821561089d579182015b8281111561089c578251825591602001919060010190610881565b5b5090506108aa91906108ae565b5090565b5b808211156108c75760008160009055506001016108af565b5090565b60006108de6108d984610c69565b610c44565b9050828152602081018484840111156108f657600080fd5b610901848285610d54565b509392505050565b60008135905061091881610f38565b92915050565b600082601f83011261092f57600080fd5b813561093f8482602086016108cb565b91505092915050565b60008135905061095781610f4f565b92915050565b60006020828403121561096f57600080fd5b600061097d84828501610909565b91505092915050565b6000806040838503121561099957600080fd5b600083013567ffffffffffffffff8111156109b357600080fd5b6109bf8582860161091e565b92505060206109d085828601610948565b9150509250929050565b6000602082840312156109ec57600080fd5b60006109fa84828501610948565b91505092915050565b60008060408385031215610a1657600080fd5b6000610a2485828601610948565b9250506020610a3585828601610909565b9150509250929050565b60008060408385031215610a5257600080fd5b6000610a6085828601610948565b925050602083013567ffffffffffffffff811115610a7d57600080fd5b610a898582860161091e565b9150509250929050565b610a9c81610d0c565b82525050565b610aab81610d1e565b82525050565b6000610abc82610c9a565b610ac68185610ca5565b9350610ad6818560208601610d63565b610adf81610e86565b840191505092915050565b6000610af7602683610ca5565b9150610b0282610e97565b604082019050919050565b6000610b1a601283610ca5565b9150610b2582610ee6565b602082019050919050565b6000610b3d602083610ca5565b9150610b4882610f0f565b602082019050919050565b610b5c81610d4a565b82525050565b6000602082019050610b776000830184610a93565b92915050565b60006020820190508181036000830152610b9681610aea565b9050919050565b60006020820190508181036000830152610bb681610b0d565b9050919050565b60006020820190508181036000830152610bd681610b30565b9050919050565b6000602082019050610bf26000830184610b53565b92915050565b6000608082019050610c0d6000830187610b53565b8181036020830152610c1f8186610ab1565b9050610c2e6040830185610b53565b610c3b6060830184610aa2565b95945050505050565b6000610c4e610c5f565b9050610c5a8282610dc8565b919050565b6000604051905090565b600067ffffffffffffffff821115610c8457610c83610e57565b5b610c8d82610e86565b9050602081019050919050565b600081519050919050565b600082825260208201905092915050565b6000610cc182610d4a565b9150610ccc83610d4a565b9250827fffffffffffffffffffffffffffffffffffffffffffffffffffffffffffffffff03821115610d0157610d00610df9565b5b828201905092915050565b6000610d1782610d2a565b9050919050565b60008115159050919050565b600073ffffffffffffffffffffffffffffffffffffffff82169050919050565b6000819050919050565b82818337600083830152505050565b60005b83811015610d81578082015181840152602081019050610d66565b83811115610d90576000848401525b50505050565b60006002820490506001821680610dae57607f821691505b60208210811415610dc257610dc1610e28565b5b50919050565b610dd182610e86565b810181811067ffffffffffffffff82111715610df057610def610e57565b5b80604052505050565b7f4e487b7100000000000000000000000000000000000000000000000000000000600052601160045260246000fd5b7f4e487b7100000000000000000000000000000000000000000000000000000000600052602260045260246000fd5b7f4e487b7100000000000000000000000000000000000000000000000000000000600052604160045260246000fd5b6000601f19601f8301169050919050565b7f4f776e61626c653a206e6577206f776e657220697320746865207a65726f206160008201527f6464726573730000000000000000000000000000000000000000000000000000602082015250565b7f5461736b20646f65736e27742065786973740000000000000000000000000000600082015250565b7f4f776e61626c653a2063616c6c6572206973206e6f7420746865206f776e6572600082015250565b610f4181610d0c565b8114610f4c57600080fd5b50565b610f5881610d4a565b8114610f6357600080fd5b5056fea2646970667358221220f9964cc5f1ed05e494852e68d70e8cd54929a102c76e6abab68d918960773aa764736f6c63430008020033",
  "linkReferences": {},
  "deployedLinkReferences": {}
}