{
  "_format": "hh-sol-artifact-1",
  "contractName": "BetterNFTERC721",
  "sourceName": "contracts/BetterNFTERC721.sol",
  "abi": [
    {
      "inputs": [],
      "stateMutability": "nonpayable",
      "type": "constructor"
    },
    {
      "anonymous": false,
      "inputs": [
        {
          "indexed": true,
          "internalType": "address",
          "name": "owner",
          "type": "address"
        },
        {
          "indexed": true,
          "internalType": "address",
          "name": "approved",
          "type": "address"
        },
        {
          "indexed": true,
          "internalType": "uint256",
          "name": "tokenId",
          "type": "uint256"
        }
      ],
      "name": "Approval",
      "type": "event"
    },
    {
      "anonymous": false,
      "inputs": [
        {
          "indexed": true,
          "internalType": "address",
          "name": "owner",
          "type": "address"
        },
        {
          "indexed": true,
          "internalType": "address",
          "name": "operator",
          "type": "address"
        },
        {
          "indexed": false,
          "internalType": "bool",
          "name": "approved",
          "type": "bool"
        }
      ],
      "name": "ApprovalForAll",
      "type": "event"
    },
    {
      "anonymous": false,
      "inputs": [
        {
          "indexed": true,
          "internalType": "address",
          "name": "from",
          "type": "address"
        },
        {
          "indexed": true,
          "internalType": "address",
          "name": "to",
          "type": "address"
        },
        {
          "indexed": true,
          "internalType": "uint256",
          "name": "tokenId",
          "type": "uint256"
        }
      ],
      "name": "Transfer",
      "type": "event"
    },
    {
      "inputs": [
        {
          "internalType": "address",
          "name": "to",
          "type": "address"
        },
        {
          "internalType": "uint256",
          "name": "tokenId",
          "type": "uint256"
        }
      ],
      "name": "approve",
      "outputs": [],
      "stateMutability": "nonpayable",
      "type": "function"
    },
    {
      "inputs": [
        {
          "internalType": "address",
          "name": "owner",
          "type": "address"
        }
      ],
      "name": "balanceOf",
      "outputs": [
        {
          "internalType": "uint256",
          "name": "",
          "type": "uint256"
        }
      ],
      "stateMutability": "view",
      "type": "function"
    },
    {
      "inputs": [
        {
          "internalType": "uint256",
          "name": "tokenId",
          "type": "uint256"
        }
      ],
      "name": "getApproved",
      "outputs": [
        {
          "internalType": "address",
          "name": "",
          "type": "address"
        }
      ],
      "stateMutability": "view",
      "type": "function"
    },
    {
      "inputs": [
        {
          "internalType": "address",
          "name": "owner",
          "type": "address"
        },
        {
          "internalType": "address",
          "name": "operator",
          "type": "address"
        }
      ],
      "name": "isApprovedForAll",
      "outputs": [
        {
          "internalType": "bool",
          "name": "",
          "type": "bool"
        }
      ],
      "stateMutability": "view",
      "type": "function"
    },
    {
      "inputs": [
        {
          "internalType": "string",
          "name": "_tokenURI",
          "type": "string"
        }
      ],
      "name": "mintNFT",
      "outputs": [
        {
          "internalType": "uint256",
          "name": "",
          "type": "uint256"
        }
      ],
      "stateMutability": "nonpayable",
      "type": "function"
    },
    {
      "inputs": [],
      "name": "name",
      "outputs": [
        {
          "internalType": "string",
          "name": "",
          "type": "string"
        }
      ],
      "stateMutability": "view",
      "type": "function"
    },
    {
      "inputs": [
        {
          "internalType": "uint256",
          "name": "tokenId",
          "type": "uint256"
        }
      ],
      "name": "ownerOf",
      "outputs": [
        {
          "internalType": "address",
          "name": "",
          "type": "address"
        }
      ],
      "stateMutability": "view",
      "type": "function"
    },
    {
      "inputs": [],
      "name": "revealCollection",
      "outputs": [],
      "stateMutability": "nonpayable",
      "type": "function"
    },
    {
      "inputs": [
        {
          "internalType": "address",
          "name": "from",
          "type": "address"
        },
        {
          "internalType": "address",
          "name": "to",
          "type": "address"
        },
        {
          "internalType": "uint256",
          "name": "tokenId",
          "type": "uint256"
        }
      ],
      "name": "safeTransferFrom",
      "outputs": [],
      "stateMutability": "nonpayable",
      "type": "function"
    },
    {
      "inputs": [
        {
          "internalType": "address",
          "name": "from",
          "type": "address"
        },
        {
          "internalType": "address",
          "name": "to",
          "type": "address"
        },
        {
          "internalType": "uint256",
          "name": "tokenId",
          "type": "uint256"
        },
        {
          "internalType": "bytes",
          "name": "_data",
          "type": "bytes"
        }
      ],
      "name": "safeTransferFrom",
      "outputs": [],
      "stateMutability": "nonpayable",
      "type": "function"
    },
    {
      "inputs": [
        {
          "internalType": "address",
          "name": "operator",
          "type": "address"
        },
        {
          "internalType": "bool",
          "name": "approved",
          "type": "bool"
        }
      ],
      "name": "setApprovalForAll",
      "outputs": [],
      "stateMutability": "nonpayable",
      "type": "function"
    },
    {
      "inputs": [
        {
          "internalType": "bytes4",
          "name": "interfaceId",
          "type": "bytes4"
        }
      ],
      "name": "supportsInterface",
      "outputs": [
        {
          "internalType": "bool",
          "name": "",
          "type": "bool"
        }
      ],
      "stateMutability": "view",
      "type": "function"
    },
    {
      "inputs": [],
      "name": "symbol",
      "outputs": [
        {
          "internalType": "string",
          "name": "",
          "type": "string"
        }
      ],
      "stateMutability": "view",
      "type": "function"
    },
    {
      "inputs": [
        {
          "internalType": "uint256",
          "name": "tokenId",
          "type": "uint256"
        }
      ],
      "name": "tokenURI",
      "outputs": [
        {
          "internalType": "string",
          "name": "",
          "type": "string"
        }
      ],
      "stateMutability": "view",
      "type": "function"
    },
    {
      "inputs": [
        {
          "internalType": "address",
          "name": "from",
          "type": "address"
        },
        {
          "internalType": "address",
          "name": "to",
          "type": "address"
        },
        {
          "internalType": "uint256",
          "name": "tokenId",
          "type": "uint256"
        }
      ],
      "name": "transferFrom",
      "outputs": [],
      "stateMutability": "nonpayable",
      "type": "function"
    }
  ],
  "bytecode": "0x60806040526000600860006101000a81548160ff0219169083151502179055506040518060800160405280604c815260200162002e77604c9139600990805190602001906200005092919062000105565b503480156200005e57600080fd5b506040518060400160405280600f81526020017f4265747465724e465445524337323100000000000000000000000000000000008152506040518060400160405280600481526020017f424e4654000000000000000000000000000000000000000000000000000000008152508160009080519060200190620000e392919062000105565b508060019080519060200190620000fc92919062000105565b5050506200021a565b8280546200011390620001b5565b90600052602060002090601f01602090048101928262000137576000855562000183565b82601f106200015257805160ff191683800117855562000183565b8280016001018555821562000183579182015b828111156200018257825182559160200191906001019062000165565b5b50905062000192919062000196565b5090565b5b80821115620001b157600081600090555060010162000197565b5090565b60006002820490506001821680620001ce57607f821691505b60208210811415620001e557620001e4620001eb565b5b50919050565b7f4e487b7100000000000000000000000000000000000000000000000000000000600052602260045260246000fd5b612c4d806200022a6000396000f3fe608060405234801561001057600080fd5b50600436106100f55760003560e01c80636352211e11610097578063b88d4fde11610066578063b88d4fde14610270578063c87b56dd1461028c578063e985e9c5146102bc578063fb37e883146102ec576100f5565b80636352211e146101d657806370a082311461020657806395d89b4114610236578063a22cb46514610254576100f5565b8063095ea7b3116100d3578063095ea7b31461017857806323b872dd1461019457806340d0b4a9146101b057806342842e0e146101ba576100f5565b806301ffc9a7146100fa57806306fdde031461012a578063081812fc14610148575b600080fd5b610114600480360381019061010f9190611cb9565b61031c565b6040516101219190612100565b60405180910390f35b6101326103fe565b60405161013f919061211b565b60405180910390f35b610162600480360381019061015d9190611d4c565b610490565b60405161016f9190612099565b60405180910390f35b610192600480360381019061018d9190611c7d565b610515565b005b6101ae60048036038101906101a99190611b77565b61062d565b005b6101b861068d565b005b6101d460048036038101906101cf9190611b77565b6106aa565b005b6101f060048036038101906101eb9190611d4c565b6106ca565b6040516101fd9190612099565b60405180910390f35b610220600480360381019061021b9190611b12565b61077c565b60405161022d919061233d565b60405180910390f35b61023e610834565b60405161024b919061211b565b60405180910390f35b61026e60048036038101906102699190611c41565b6108c6565b005b61028a60048036038101906102859190611bc6565b6108dc565b005b6102a660048036038101906102a19190611d4c565b61093e565b6040516102b3919061211b565b60405180910390f35b6102d660048036038101906102d19190611b3b565b6109ff565b6040516102e39190612100565b60405180910390f35b61030660048036038101906103019190611d0b565b610a93565b604051610313919061233d565b60405180910390f35b60007f80ac58cd000000000000000000000000000000000000000000000000000000007bffffffffffffffffffffffffffffffffffffffffffffffffffffffff1916827bffffffffffffffffffffffffffffffffffffffffffffffffffffffff191614806103e757507f5b5e139f000000000000000000000000000000000000000000000000000000007bffffffffffffffffffffffffffffffffffffffffffffffffffffffff1916827bffffffffffffffffffffffffffffffffffffffffffffffffffffffff1916145b806103f757506103f682610aca565b5b9050919050565b60606000805461040d90612593565b80601f016020809104026020016040519081016040528092919081815260200182805461043990612593565b80156104865780601f1061045b57610100808354040283529160200191610486565b820191906000526020600020905b81548152906001019060200180831161046957829003601f168201915b5050505050905090565b600061049b82610b34565b6104da576040517f08c379a00000000000000000000000000000000000000000000000000000000081526004016104d19061229d565b60405180910390fd5b6004600083815260200190815260200160002060009054906101000a900473ffffffffffffffffffffffffffffffffffffffff169050919050565b6000610520826106ca565b90508073ffffffffffffffffffffffffffffffffffffffff168373ffffffffffffffffffffffffffffffffffffffff161415610591576040517f08c379a0000000000000000000000000000000000000000000000000000000008152600401610588906122fd565b60405180910390fd5b8073ffffffffffffffffffffffffffffffffffffffff166105b0610ba0565b73ffffffffffffffffffffffffffffffffffffffff1614806105df57506105de816105d9610ba0565b6109ff565b5b61061e576040517f08c379a0000000000000000000000000000000000000000000000000000000008152600401610615906121dd565b60405180910390fd5b6106288383610ba8565b505050565b61063e610638610ba0565b82610c61565b61067d576040517f08c379a00000000000000000000000000000000000000000000000000000000081526004016106749061231d565b60405180910390fd5b610688838383610d3f565b505050565b6001600860006101000a81548160ff021916908315150217905550565b6106c5838383604051806020016040528060008152506108dc565b505050565b6000806002600084815260200190815260200160002060009054906101000a900473ffffffffffffffffffffffffffffffffffffffff169050600073ffffffffffffffffffffffffffffffffffffffff168173ffffffffffffffffffffffffffffffffffffffff161415610773576040517f08c379a000000000000000000000000000000000000000000000000000000000815260040161076a9061221d565b60405180910390fd5b80915050919050565b60008073ffffffffffffffffffffffffffffffffffffffff168273ffffffffffffffffffffffffffffffffffffffff1614156107ed576040517f08c379a00000000000000000000000000000000000000000000000000000000081526004016107e4906121fd565b60405180910390fd5b600360008373ffffffffffffffffffffffffffffffffffffffff1673ffffffffffffffffffffffffffffffffffffffff168152602001908152602001600020549050919050565b60606001805461084390612593565b80601f016020809104026020016040519081016040528092919081815260200182805461086f90612593565b80156108bc5780601f10610891576101008083540402835291602001916108bc565b820191906000526020600020905b81548152906001019060200180831161089f57829003601f168201915b5050505050905090565b6108d86108d1610ba0565b8383610f9b565b5050565b6108ed6108e7610ba0565b83610c61565b61092c576040517f08c379a00000000000000000000000000000000000000000000000000000000081526004016109239061231d565b60405180910390fd5b61093884848484611108565b50505050565b606060011515600860009054906101000a900460ff161515141561096c5761096582611164565b90506109fa565b6009805461097990612593565b80601f01602080910402602001604051908101604052809291908181526020018280546109a590612593565b80156109f25780601f106109c7576101008083540402835291602001916109f2565b820191906000526020600020905b8154815290600101906020018083116109d557829003601f168201915b505050505090505b919050565b6000600560008473ffffffffffffffffffffffffffffffffffffffff1673ffffffffffffffffffffffffffffffffffffffff16815260200190815260200160002060008373ffffffffffffffffffffffffffffffffffffffff1673ffffffffffffffffffffffffffffffffffffffff16815260200190815260200160002060009054906101000a900460ff16905092915050565b6000610a9f60076112b6565b6000610aab60076112cc565b9050610ab733826112da565b610ac181846114a8565b80915050919050565b60007f01ffc9a7000000000000000000000000000000000000000000000000000000007bffffffffffffffffffffffffffffffffffffffffffffffffffffffff1916827bffffffffffffffffffffffffffffffffffffffffffffffffffffffff1916149050919050565b60008073ffffffffffffffffffffffffffffffffffffffff166002600084815260200190815260200160002060009054906101000a900473ffffffffffffffffffffffffffffffffffffffff1673ffffffffffffffffffffffffffffffffffffffff1614159050919050565b600033905090565b816004600083815260200190815260200160002060006101000a81548173ffffffffffffffffffffffffffffffffffffffff021916908373ffffffffffffffffffffffffffffffffffffffff160217905550808273ffffffffffffffffffffffffffffffffffffffff16610c1b836106ca565b73ffffffffffffffffffffffffffffffffffffffff167f8c5be1e5ebec7d5bd14f71427d1e84f3dd0314c0f7b2291e5b200ac8c7c3b92560405160405180910390a45050565b6000610c6c82610b34565b610cab576040517f08c379a0000000000000000000000000000000000000000000000000000000008152600401610ca2906121bd565b60405180910390fd5b6000610cb6836106ca565b90508073ffffffffffffffffffffffffffffffffffffffff168473ffffffffffffffffffffffffffffffffffffffff161480610d2557508373ffffffffffffffffffffffffffffffffffffffff16610d0d84610490565b73ffffffffffffffffffffffffffffffffffffffff16145b80610d365750610d3581856109ff565b5b91505092915050565b8273ffffffffffffffffffffffffffffffffffffffff16610d5f826106ca565b73ffffffffffffffffffffffffffffffffffffffff1614610db5576040517f08c379a0000000000000000000000000000000000000000000000000000000008152600401610dac906122bd565b60405180910390fd5b600073ffffffffffffffffffffffffffffffffffffffff168273ffffffffffffffffffffffffffffffffffffffff161415610e25576040517f08c379a0000000000000000000000000000000000000000000000000000000008152600401610e1c9061217d565b60405180910390fd5b610e3083838361151c565b610e3b600082610ba8565b6001600360008573ffffffffffffffffffffffffffffffffffffffff1673ffffffffffffffffffffffffffffffffffffffff1681526020019081526020016000206000828254610e8b91906124a9565b925050819055506001600360008473ffffffffffffffffffffffffffffffffffffffff1673ffffffffffffffffffffffffffffffffffffffff1681526020019081526020016000206000828254610ee29190612422565b92505081905550816002600083815260200190815260200160002060006101000a81548173ffffffffffffffffffffffffffffffffffffffff021916908373ffffffffffffffffffffffffffffffffffffffff160217905550808273ffffffffffffffffffffffffffffffffffffffff168473ffffffffffffffffffffffffffffffffffffffff167fddf252ad1be2c89b69c2b068fc378daa952ba7f163c4a11628f55a4df523b3ef60405160405180910390a4505050565b8173ffffffffffffffffffffffffffffffffffffffff168373ffffffffffffffffffffffffffffffffffffffff16141561100a576040517f08c379a00000000000000000000000000000000000000000000000000000000081526004016110019061219d565b60405180910390fd5b80600560008573ffffffffffffffffffffffffffffffffffffffff1673ffffffffffffffffffffffffffffffffffffffff16815260200190815260200160002060008473ffffffffffffffffffffffffffffffffffffffff1673ffffffffffffffffffffffffffffffffffffffff16815260200190815260200160002060006101000a81548160ff0219169083151502179055508173ffffffffffffffffffffffffffffffffffffffff168373ffffffffffffffffffffffffffffffffffffffff167f17307eab39ab6107e8899845ad3d59bd9653f200f220920489ca2b5937696c31836040516110fb9190612100565b60405180910390a3505050565b611113848484610d3f565b61111f84848484611521565b61115e576040517f08c379a00000000000000000000000000000000000000000000000000000000081526004016111559061213d565b60405180910390fd5b50505050565b606061116f82610b34565b6111ae576040517f08c379a00000000000000000000000000000000000000000000000000000000081526004016111a59061227d565b60405180910390fd5b60006006600084815260200190815260200160002080546111ce90612593565b80601f01602080910402602001604051908101604052809291908181526020018280546111fa90612593565b80156112475780601f1061121c57610100808354040283529160200191611247565b820191906000526020600020905b81548152906001019060200180831161122a57829003601f168201915b5050505050905060006112586116b8565b905060008151141561126e5781925050506112b1565b6000825111156112a357808260405160200161128b929190612075565b604051602081830303815290604052925050506112b1565b6112ac846116cf565b925050505b919050565b6001816000016000828254019250508190555050565b600081600001549050919050565b600073ffffffffffffffffffffffffffffffffffffffff168273ffffffffffffffffffffffffffffffffffffffff16141561134a576040517f08c379a00000000000000000000000000000000000000000000000000000000081526004016113419061225d565b60405180910390fd5b61135381610b34565b15611393576040517f08c379a000000000000000000000000000000000000000000000000000000000815260040161138a9061215d565b60405180910390fd5b61139f6000838361151c565b6001600360008473ffffffffffffffffffffffffffffffffffffffff1673ffffffffffffffffffffffffffffffffffffffff16815260200190815260200160002060008282546113ef9190612422565b92505081905550816002600083815260200190815260200160002060006101000a81548173ffffffffffffffffffffffffffffffffffffffff021916908373ffffffffffffffffffffffffffffffffffffffff160217905550808273ffffffffffffffffffffffffffffffffffffffff16600073ffffffffffffffffffffffffffffffffffffffff167fddf252ad1be2c89b69c2b068fc378daa952ba7f163c4a11628f55a4df523b3ef60405160405180910390a45050565b6114b182610b34565b6114f0576040517f08c379a00000000000000000000000000000000000000000000000000000000081526004016114e79061223d565b60405180910390fd5b80600660008481526020019081526020016000209080519060200190611517929190611936565b505050565b505050565b60006115428473ffffffffffffffffffffffffffffffffffffffff16611776565b156116ab578373ffffffffffffffffffffffffffffffffffffffff1663150b7a0261156b610ba0565b8786866040518563ffffffff1660e01b815260040161158d94939291906120b4565b602060405180830381600087803b1580156115a757600080fd5b505af19250505080156115d857506040513d601f19601f820116820180604052508101906115d59190611ce2565b60015b61165b573d8060008114611608576040519150601f19603f3d011682016040523d82523d6000602084013e61160d565b606091505b50600081511415611653576040517f08c379a000000000000000000000000000000000000000000000000000000000815260040161164a9061213d565b60405180910390fd5b805181602001fd5b63150b7a0260e01b7bffffffffffffffffffffffffffffffffffffffffffffffffffffffff1916817bffffffffffffffffffffffffffffffffffffffffffffffffffffffff1916149150506116b0565b600190505b949350505050565b606060405180602001604052806000815250905090565b60606116da82610b34565b611719576040517f08c379a0000000000000000000000000000000000000000000000000000000008152600401611710906122dd565b60405180910390fd5b60006117236116b8565b90506000815111611743576040518060200160405280600081525061176e565b8061174d84611789565b60405160200161175e929190612075565b6040516020818303038152906040525b915050919050565b600080823b905060008111915050919050565b606060008214156117d1576040518060400160405280600181526020017f30000000000000000000000000000000000000000000000000000000000000008152509050611931565b600082905060005b600082146118035780806117ec906125f6565b915050600a826117fc9190612478565b91506117d9565b60008167ffffffffffffffff811115611845577f4e487b7100000000000000000000000000000000000000000000000000000000600052604160045260246000fd5b6040519080825280601f01601f1916602001820160405280156118775781602001600182028036833780820191505090505b5090505b6000851461192a5760018261189091906124a9565b9150600a8561189f919061263f565b60306118ab9190612422565b60f81b8183815181106118e7577f4e487b7100000000000000000000000000000000000000000000000000000000600052603260045260246000fd5b60200101907effffffffffffffffffffffffffffffffffffffffffffffffffffffffffffff1916908160001a905350600a856119239190612478565b945061187b565b8093505050505b919050565b82805461194290612593565b90600052602060002090601f01602090048101928261196457600085556119ab565b82601f1061197d57805160ff19168380011785556119ab565b828001600101855582156119ab579182015b828111156119aa57825182559160200191906001019061198f565b5b5090506119b891906119bc565b5090565b5b808211156119d55760008160009055506001016119bd565b5090565b60006119ec6119e78461237d565b612358565b905082815260208101848484011115611a0457600080fd5b611a0f848285612551565b509392505050565b6000611a2a611a25846123ae565b612358565b905082815260208101848484011115611a4257600080fd5b611a4d848285612551565b509392505050565b600081359050611a6481612bbb565b92915050565b600081359050611a7981612bd2565b92915050565b600081359050611a8e81612be9565b92915050565b600081519050611aa381612be9565b92915050565b600082601f830112611aba57600080fd5b8135611aca8482602086016119d9565b91505092915050565b600082601f830112611ae457600080fd5b8135611af4848260208601611a17565b91505092915050565b600081359050611b0c81612c00565b92915050565b600060208284031215611b2457600080fd5b6000611b3284828501611a55565b91505092915050565b60008060408385031215611b4e57600080fd5b6000611b5c85828601611a55565b9250506020611b6d85828601611a55565b9150509250929050565b600080600060608486031215611b8c57600080fd5b6000611b9a86828701611a55565b9350506020611bab86828701611a55565b9250506040611bbc86828701611afd565b9150509250925092565b60008060008060808587031215611bdc57600080fd5b6000611bea87828801611a55565b9450506020611bfb87828801611a55565b9350506040611c0c87828801611afd565b925050606085013567ffffffffffffffff811115611c2957600080fd5b611c3587828801611aa9565b91505092959194509250565b60008060408385031215611c5457600080fd5b6000611c6285828601611a55565b9250506020611c7385828601611a6a565b9150509250929050565b60008060408385031215611c9057600080fd5b6000611c9e85828601611a55565b9250506020611caf85828601611afd565b9150509250929050565b600060208284031215611ccb57600080fd5b6000611cd984828501611a7f565b91505092915050565b600060208284031215611cf457600080fd5b6000611d0284828501611a94565b91505092915050565b600060208284031215611d1d57600080fd5b600082013567ffffffffffffffff811115611d3757600080fd5b611d4384828501611ad3565b91505092915050565b600060208284031215611d5e57600080fd5b6000611d6c84828501611afd565b91505092915050565b611d7e816124dd565b82525050565b611d8d816124ef565b82525050565b6000611d9e826123df565b611da881856123f5565b9350611db8818560208601612560565b611dc18161272c565b840191505092915050565b6000611dd7826123ea565b611de18185612406565b9350611df1818560208601612560565b611dfa8161272c565b840191505092915050565b6000611e10826123ea565b611e1a8185612417565b9350611e2a818560208601612560565b80840191505092915050565b6000611e43603283612406565b9150611e4e8261273d565b604082019050919050565b6000611e66601c83612406565b9150611e718261278c565b602082019050919050565b6000611e89602483612406565b9150611e94826127b5565b604082019050919050565b6000611eac601983612406565b9150611eb782612804565b602082019050919050565b6000611ecf602c83612406565b9150611eda8261282d565b604082019050919050565b6000611ef2603883612406565b9150611efd8261287c565b604082019050919050565b6000611f15602a83612406565b9150611f20826128cb565b604082019050919050565b6000611f38602983612406565b9150611f438261291a565b604082019050919050565b6000611f5b602e83612406565b9150611f6682612969565b604082019050919050565b6000611f7e602083612406565b9150611f89826129b8565b602082019050919050565b6000611fa1603183612406565b9150611fac826129e1565b604082019050919050565b6000611fc4602c83612406565b9150611fcf82612a30565b604082019050919050565b6000611fe7602983612406565b9150611ff282612a7f565b604082019050919050565b600061200a602f83612406565b915061201582612ace565b604082019050919050565b600061202d602183612406565b915061203882612b1d565b604082019050919050565b6000612050603183612406565b915061205b82612b6c565b604082019050919050565b61206f81612547565b82525050565b60006120818285611e05565b915061208d8284611e05565b91508190509392505050565b60006020820190506120ae6000830184611d75565b92915050565b60006080820190506120c96000830187611d75565b6120d66020830186611d75565b6120e36040830185612066565b81810360608301526120f58184611d93565b905095945050505050565b60006020820190506121156000830184611d84565b92915050565b600060208201905081810360008301526121358184611dcc565b905092915050565b6000602082019050818103600083015261215681611e36565b9050919050565b6000602082019050818103600083015261217681611e59565b9050919050565b6000602082019050818103600083015261219681611e7c565b9050919050565b600060208201905081810360008301526121b681611e9f565b9050919050565b600060208201905081810360008301526121d681611ec2565b9050919050565b600060208201905081810360008301526121f681611ee5565b9050919050565b6000602082019050818103600083015261221681611f08565b9050919050565b6000602082019050818103600083015261223681611f2b565b9050919050565b6000602082019050818103600083015261225681611f4e565b9050919050565b6000602082019050818103600083015261227681611f71565b9050919050565b6000602082019050818103600083015261229681611f94565b9050919050565b600060208201905081810360008301526122b681611fb7565b9050919050565b600060208201905081810360008301526122d681611fda565b9050919050565b600060208201905081810360008301526122f681611ffd565b9050919050565b6000602082019050818103600083015261231681612020565b9050919050565b6000602082019050818103600083015261233681612043565b9050919050565b60006020820190506123526000830184612066565b92915050565b6000612362612373565b905061236e82826125c5565b919050565b6000604051905090565b600067ffffffffffffffff821115612398576123976126fd565b5b6123a18261272c565b9050602081019050919050565b600067ffffffffffffffff8211156123c9576123c86126fd565b5b6123d28261272c565b9050602081019050919050565b600081519050919050565b600081519050919050565b600082825260208201905092915050565b600082825260208201905092915050565b600081905092915050565b600061242d82612547565b915061243883612547565b9250827fffffffffffffffffffffffffffffffffffffffffffffffffffffffffffffffff0382111561246d5761246c612670565b5b828201905092915050565b600061248382612547565b915061248e83612547565b92508261249e5761249d61269f565b5b828204905092915050565b60006124b482612547565b91506124bf83612547565b9250828210156124d2576124d1612670565b5b828203905092915050565b60006124e882612527565b9050919050565b60008115159050919050565b60007fffffffff0000000000000000000000000000000000000000000000000000000082169050919050565b600073ffffffffffffffffffffffffffffffffffffffff82169050919050565b6000819050919050565b82818337600083830152505050565b60005b8381101561257e578082015181840152602081019050612563565b8381111561258d576000848401525b50505050565b600060028204905060018216806125ab57607f821691505b602082108114156125bf576125be6126ce565b5b50919050565b6125ce8261272c565b810181811067ffffffffffffffff821117156125ed576125ec6126fd565b5b80604052505050565b600061260182612547565b91507fffffffffffffffffffffffffffffffffffffffffffffffffffffffffffffffff82141561263457612633612670565b5b600182019050919050565b600061264a82612547565b915061265583612547565b9250826126655761266461269f565b5b828206905092915050565b7f4e487b7100000000000000000000000000000000000000000000000000000000600052601160045260246000fd5b7f4e487b7100000000000000000000000000000000000000000000000000000000600052601260045260246000fd5b7f4e487b7100000000000000000000000000000000000000000000000000000000600052602260045260246000fd5b7f4e487b7100000000000000000000000000000000000000000000000000000000600052604160045260246000fd5b6000601f19601f8301169050919050565b7f4552433732313a207472616e7366657220746f206e6f6e20455243373231526560008201527f63656976657220696d706c656d656e7465720000000000000000000000000000602082015250565b7f4552433732313a20746f6b656e20616c7265616479206d696e74656400000000600082015250565b7f4552433732313a207472616e7366657220746f20746865207a65726f2061646460008201527f7265737300000000000000000000000000000000000000000000000000000000602082015250565b7f4552433732313a20617070726f766520746f2063616c6c657200000000000000600082015250565b7f4552433732313a206f70657261746f7220717565727920666f72206e6f6e657860008201527f697374656e7420746f6b656e0000000000000000000000000000000000000000602082015250565b7f4552433732313a20617070726f76652063616c6c6572206973206e6f74206f7760008201527f6e6572206e6f7220617070726f76656420666f7220616c6c0000000000000000602082015250565b7f4552433732313a2062616c616e636520717565727920666f7220746865207a6560008201527f726f206164647265737300000000000000000000000000000000000000000000602082015250565b7f4552433732313a206f776e657220717565727920666f72206e6f6e657869737460008201527f656e7420746f6b656e0000000000000000000000000000000000000000000000602082015250565b7f45524337323155524953746f726167653a2055524920736574206f66206e6f6e60008201527f6578697374656e7420746f6b656e000000000000000000000000000000000000602082015250565b7f4552433732313a206d696e7420746f20746865207a65726f2061646472657373600082015250565b7f45524337323155524953746f726167653a2055524920717565727920666f722060008201527f6e6f6e6578697374656e7420746f6b656e000000000000000000000000000000602082015250565b7f4552433732313a20617070726f76656420717565727920666f72206e6f6e657860008201527f697374656e7420746f6b656e0000000000000000000000000000000000000000602082015250565b7f4552433732313a207472616e73666572206f6620746f6b656e2074686174206960008201527f73206e6f74206f776e0000000000000000000000000000000000000000000000602082015250565b7f4552433732314d657461646174613a2055524920717565727920666f72206e6f60008201527f6e6578697374656e7420746f6b656e0000000000000000000000000000000000602082015250565b7f4552433732313a20617070726f76616c20746f2063757272656e74206f776e6560008201527f7200000000000000000000000000000000000000000000000000000000000000602082015250565b7f4552433732313a207472616e736665722063616c6c6572206973206e6f74206f60008201527f776e6572206e6f7220617070726f766564000000000000000000000000000000602082015250565b612bc4816124dd565b8114612bcf57600080fd5b50565b612bdb816124ef565b8114612be657600080fd5b50565b612bf2816124fb565b8114612bfd57600080fd5b50565b612c0981612547565b8114612c1457600080fd5b5056fea26469706673582212207cac077ff2fb6da698bf518e0e19f777c5f47e883523c10bffbebc345760bfd364736f6c6343000802003368747470733a2f2f697066732e696f2f697066732f516d556466726b7355664e4162696f7a654d5356514b683231586334566251476d4e3837615068776e36526251622f6567672e6a736f6e",
  "linkReferences": {},
  "deployedLinkReferences": {}
}