{
  "_format": "hh-sol-artifact-1",
  "contractName": "BetterNFTCollection",
  "sourceName": "contracts/BetterNFTCollection.sol",
  "abi": [
    {
      "inputs": [
        {
          "internalType": "string",
          "name": "_name",
          "type": "string"
        },
        {
          "internalType": "string",
          "name": "_symbol",
          "type": "string"
        },
        {
          "internalType": "string",
          "name": "_baseUri",
          "type": "string"
        }
      ],
      "stateMutability": "nonpayable",
      "type": "constructor"
    },
    {
      "anonymous": false,
      "inputs": [
        {
          "indexed": true,
          "internalType": "address",
          "name": "account",
          "type": "address"
        },
        {
          "indexed": true,
          "internalType": "address",
          "name": "operator",
          "type": "address"
        },
        {
          "indexed": false,
          "internalType": "bool",
          "name": "approved",
          "type": "bool"
        }
      ],
      "name": "ApprovalForAll",
      "type": "event"
    },
    {
      "anonymous": false,
      "inputs": [
        {
          "indexed": true,
          "internalType": "address",
          "name": "previousOwner",
          "type": "address"
        },
        {
          "indexed": true,
          "internalType": "address",
          "name": "newOwner",
          "type": "address"
        }
      ],
      "name": "OwnershipTransferred",
      "type": "event"
    },
    {
      "anonymous": false,
      "inputs": [
        {
          "indexed": true,
          "internalType": "address",
          "name": "operator",
          "type": "address"
        },
        {
          "indexed": true,
          "internalType": "address",
          "name": "from",
          "type": "address"
        },
        {
          "indexed": true,
          "internalType": "address",
          "name": "to",
          "type": "address"
        },
        {
          "indexed": false,
          "internalType": "uint256[]",
          "name": "ids",
          "type": "uint256[]"
        },
        {
          "indexed": false,
          "internalType": "uint256[]",
          "name": "values",
          "type": "uint256[]"
        }
      ],
      "name": "TransferBatch",
      "type": "event"
    },
    {
      "anonymous": false,
      "inputs": [
        {
          "indexed": true,
          "internalType": "address",
          "name": "operator",
          "type": "address"
        },
        {
          "indexed": true,
          "internalType": "address",
          "name": "from",
          "type": "address"
        },
        {
          "indexed": true,
          "internalType": "address",
          "name": "to",
          "type": "address"
        },
        {
          "indexed": false,
          "internalType": "uint256",
          "name": "id",
          "type": "uint256"
        },
        {
          "indexed": false,
          "internalType": "uint256",
          "name": "value",
          "type": "uint256"
        }
      ],
      "name": "TransferSingle",
      "type": "event"
    },
    {
      "anonymous": false,
      "inputs": [
        {
          "indexed": false,
          "internalType": "string",
          "name": "value",
          "type": "string"
        },
        {
          "indexed": true,
          "internalType": "uint256",
          "name": "id",
          "type": "uint256"
        }
      ],
      "name": "URI",
      "type": "event"
    },
    {
      "inputs": [
        {
          "internalType": "address",
          "name": "account",
          "type": "address"
        },
        {
          "internalType": "uint256",
          "name": "id",
          "type": "uint256"
        }
      ],
      "name": "balanceOf",
      "outputs": [
        {
          "internalType": "uint256",
          "name": "",
          "type": "uint256"
        }
      ],
      "stateMutability": "view",
      "type": "function"
    },
    {
      "inputs": [
        {
          "internalType": "address[]",
          "name": "accounts",
          "type": "address[]"
        },
        {
          "internalType": "uint256[]",
          "name": "ids",
          "type": "uint256[]"
        }
      ],
      "name": "balanceOfBatch",
      "outputs": [
        {
          "internalType": "uint256[]",
          "name": "",
          "type": "uint256[]"
        }
      ],
      "stateMutability": "view",
      "type": "function"
    },
    {
      "inputs": [],
      "name": "baseUri",
      "outputs": [
        {
          "internalType": "string",
          "name": "",
          "type": "string"
        }
      ],
      "stateMutability": "view",
      "type": "function"
    },
    {
      "inputs": [
        {
          "internalType": "address",
          "name": "account",
          "type": "address"
        },
        {
          "internalType": "address",
          "name": "operator",
          "type": "address"
        }
      ],
      "name": "isApprovedForAll",
      "outputs": [
        {
          "internalType": "bool",
          "name": "",
          "type": "bool"
        }
      ],
      "stateMutability": "view",
      "type": "function"
    },
    {
      "inputs": [
        {
          "internalType": "uint256",
          "name": "amount",
          "type": "uint256"
        }
      ],
      "name": "mint",
      "outputs": [],
      "stateMutability": "nonpayable",
      "type": "function"
    },
    {
      "inputs": [],
      "name": "name",
      "outputs": [
        {
          "internalType": "string",
          "name": "",
          "type": "string"
        }
      ],
      "stateMutability": "view",
      "type": "function"
    },
    {
      "inputs": [],
      "name": "owner",
      "outputs": [
        {
          "internalType": "address",
          "name": "",
          "type": "address"
        }
      ],
      "stateMutability": "view",
      "type": "function"
    },
    {
      "inputs": [],
      "name": "renounceOwnership",
      "outputs": [],
      "stateMutability": "nonpayable",
      "type": "function"
    },
    {
      "inputs": [],
      "name": "revealCollection",
      "outputs": [],
      "stateMutability": "nonpayable",
      "type": "function"
    },
    {
      "inputs": [
        {
          "internalType": "address",
          "name": "from",
          "type": "address"
        },
        {
          "internalType": "address",
          "name": "to",
          "type": "address"
        },
        {
          "internalType": "uint256[]",
          "name": "ids",
          "type": "uint256[]"
        },
        {
          "internalType": "uint256[]",
          "name": "amounts",
          "type": "uint256[]"
        },
        {
          "internalType": "bytes",
          "name": "data",
          "type": "bytes"
        }
      ],
      "name": "safeBatchTransferFrom",
      "outputs": [],
      "stateMutability": "nonpayable",
      "type": "function"
    },
    {
      "inputs": [
        {
          "internalType": "address",
          "name": "from",
          "type": "address"
        },
        {
          "internalType": "address",
          "name": "to",
          "type": "address"
        },
        {
          "internalType": "uint256",
          "name": "id",
          "type": "uint256"
        },
        {
          "internalType": "uint256",
          "name": "amount",
          "type": "uint256"
        },
        {
          "internalType": "bytes",
          "name": "data",
          "type": "bytes"
        }
      ],
      "name": "safeTransferFrom",
      "outputs": [],
      "stateMutability": "nonpayable",
      "type": "function"
    },
    {
      "inputs": [
        {
          "internalType": "address",
          "name": "operator",
          "type": "address"
        },
        {
          "internalType": "bool",
          "name": "approved",
          "type": "bool"
        }
      ],
      "name": "setApprovalForAll",
      "outputs": [],
      "stateMutability": "nonpayable",
      "type": "function"
    },
    {
      "inputs": [
        {
          "internalType": "bytes4",
          "name": "interfaceId",
          "type": "bytes4"
        }
      ],
      "name": "supportsInterface",
      "outputs": [
        {
          "internalType": "bool",
          "name": "",
          "type": "bool"
        }
      ],
      "stateMutability": "view",
      "type": "function"
    },
    {
      "inputs": [],
      "name": "symbol",
      "outputs": [
        {
          "internalType": "string",
          "name": "",
          "type": "string"
        }
      ],
      "stateMutability": "view",
      "type": "function"
    },
    {
      "inputs": [],
      "name": "tokenCount",
      "outputs": [
        {
          "internalType": "uint256",
          "name": "",
          "type": "uint256"
        }
      ],
      "stateMutability": "view",
      "type": "function"
    },
    {
      "inputs": [
        {
          "internalType": "address",
          "name": "newOwner",
          "type": "address"
        }
      ],
      "name": "transferOwnership",
      "outputs": [],
      "stateMutability": "nonpayable",
      "type": "function"
    },
    {
      "inputs": [
        {
          "internalType": "uint256",
          "name": "_tokenId",
          "type": "uint256"
        }
      ],
      "name": "uri",
      "outputs": [
        {
          "internalType": "string",
          "name": "",
          "type": "string"
        }
      ],
      "stateMutability": "view",
      "type": "function"
    }
  ],
  "bytecode": "0x60806040526000600860006101000a81548160ff0219169083151502179055506040518060800160405280604b815260200162003947604b91396009908051906020019062000050929190620001f5565b503480156200005e57600080fd5b506040516200399238038062003992833981810160405281019062000084919062000317565b8062000096816200010b60201b60201c565b50620000b7620000ab6200012760201b60201c565b6200012f60201b60201c565b8260049080519060200190620000cf929190620001f5565b508160059080519060200190620000e8929190620001f5565b50806007908051906020019062000101929190620001f5565b5050505062000528565b806002908051906020019062000123929190620001f5565b5050565b600033905090565b6000600360009054906101000a900473ffffffffffffffffffffffffffffffffffffffff16905081600360006101000a81548173ffffffffffffffffffffffffffffffffffffffff021916908373ffffffffffffffffffffffffffffffffffffffff1602179055508173ffffffffffffffffffffffffffffffffffffffff168173ffffffffffffffffffffffffffffffffffffffff167f8be0079c531659141344cd1fd0a4f28419497f9722a3daafe3b4186f6b6457e060405160405180910390a35050565b82805462000203906200044d565b90600052602060002090601f01602090048101928262000227576000855562000273565b82601f106200024257805160ff191683800117855562000273565b8280016001018555821562000273579182015b828111156200027257825182559160200191906001019062000255565b5b50905062000282919062000286565b5090565b5b80821115620002a157600081600090555060010162000287565b5090565b6000620002bc620002b684620003e1565b620003b8565b905082815260208101848484011115620002d557600080fd5b620002e284828562000417565b509392505050565b600082601f830112620002fc57600080fd5b81516200030e848260208601620002a5565b91505092915050565b6000806000606084860312156200032d57600080fd5b600084015167ffffffffffffffff8111156200034857600080fd5b6200035686828701620002ea565b935050602084015167ffffffffffffffff8111156200037457600080fd5b6200038286828701620002ea565b925050604084015167ffffffffffffffff811115620003a057600080fd5b620003ae86828701620002ea565b9150509250925092565b6000620003c4620003d7565b9050620003d2828262000483565b919050565b6000604051905090565b600067ffffffffffffffff821115620003ff57620003fe620004e8565b5b6200040a8262000517565b9050602081019050919050565b60005b83811015620004375780820151818401526020810190506200041a565b8381111562000447576000848401525b50505050565b600060028204905060018216806200046657607f821691505b602082108114156200047d576200047c620004b9565b5b50919050565b6200048e8262000517565b810181811067ffffffffffffffff82111715620004b057620004af620004e8565b5b80604052505050565b7f4e487b7100000000000000000000000000000000000000000000000000000000600052602260045260246000fd5b7f4e487b7100000000000000000000000000000000000000000000000000000000600052604160045260246000fd5b6000601f19601f8301169050919050565b61340f80620005386000396000f3fe608060405234801561001057600080fd5b506004361061010a5760003560e01c80638da5cb5b116100a2578063a0712d6811610071578063a0712d6814610295578063a22cb465146102b1578063e985e9c5146102cd578063f242432a146102fd578063f2fde38b146103195761010a565b80638da5cb5b1461021d57806395d89b411461023b5780639abc8320146102595780639f181b5e146102775761010a565b80632eb2c2d6116100de5780632eb2c2d6146101bd57806340d0b4a9146101d95780634e1273f4146101e3578063715018a6146102135761010a565b8062fdd58e1461010f57806301ffc9a71461013f57806306fdde031461016f5780630e89341c1461018d575b600080fd5b610129600480360381019061012491906121f1565b610335565b6040516101369190612a14565b60405180910390f35b61015960048036038101906101549190612299565b6103fe565b6040516101669190612837565b60405180910390f35b6101776104e0565b6040516101849190612852565b60405180910390f35b6101a760048036038101906101a291906122eb565b61056e565b6040516101b49190612852565b60405180910390f35b6101d760048036038101906101d29190612067565b610650565b005b6101e16106f1565b005b6101fd60048036038101906101f8919061222d565b61070e565b60405161020a91906127de565b60405180910390f35b61021b6108bf565b005b610225610947565b6040516102329190612701565b60405180910390f35b610243610971565b6040516102509190612852565b60405180910390f35b6102616109ff565b60405161026e9190612852565b60405180910390f35b61027f610a8d565b60405161028c9190612a14565b60405180910390f35b6102af60048036038101906102aa91906122eb565b610a93565b005b6102cb60048036038101906102c691906121b5565b610b49565b005b6102e760048036038101906102e2919061202b565b610b5f565b6040516102f49190612837565b60405180910390f35b61031760048036038101906103129190612126565b610bf3565b005b610333600480360381019061032e9190612002565b610c94565b005b60008073ffffffffffffffffffffffffffffffffffffffff168373ffffffffffffffffffffffffffffffffffffffff1614156103a6576040517f08c379a000000000000000000000000000000000000000000000000000000000815260040161039d906128b4565b60405180910390fd5b60008083815260200190815260200160002060008473ffffffffffffffffffffffffffffffffffffffff1673ffffffffffffffffffffffffffffffffffffffff16815260200190815260200160002054905092915050565b60007fd9b67a26000000000000000000000000000000000000000000000000000000007bffffffffffffffffffffffffffffffffffffffffffffffffffffffff1916827bffffffffffffffffffffffffffffffffffffffffffffffffffffffff191614806104c957507f0e89341c000000000000000000000000000000000000000000000000000000007bffffffffffffffffffffffffffffffffffffffffffffffffffffffff1916827bffffffffffffffffffffffffffffffffffffffffffffffffffffffff1916145b806104d957506104d882610d8c565b5b9050919050565b600480546104ed90612d08565b80601f016020809104026020016040519081016040528092919081815260200182805461051990612d08565b80156105665780601f1061053b57610100808354040283529160200191610566565b820191906000526020600020905b81548152906001019060200180831161054957829003601f168201915b505050505081565b606060011515600860009054906101000a900460ff1615151461061d576009805461059890612d08565b80601f01602080910402602001604051908101604052809291908181526020018280546105c490612d08565b80156106115780601f106105e657610100808354040283529160200191610611565b820191906000526020600020905b8154815290600101906020018083116105f457829003601f168201915b5050505050905061064b565b600761062883610df6565b6040516020016106399291906126d2565b60405160208183030381529060405290505b919050565b610658610fa3565b73ffffffffffffffffffffffffffffffffffffffff168573ffffffffffffffffffffffffffffffffffffffff16148061069e575061069d85610698610fa3565b610b5f565b5b6106dd576040517f08c379a00000000000000000000000000000000000000000000000000000000081526004016106d490612934565b60405180910390fd5b6106ea8585858585610fab565b5050505050565b6001600860006101000a81548160ff021916908315150217905550565b60608151835114610754576040517f08c379a000000000000000000000000000000000000000000000000000000000815260040161074b906129b4565b60405180910390fd5b6000835167ffffffffffffffff811115610797577f4e487b7100000000000000000000000000000000000000000000000000000000600052604160045260246000fd5b6040519080825280602002602001820160405280156107c55781602001602082028036833780820191505090505b50905060005b84518110156108b45761085e858281518110610810577f4e487b7100000000000000000000000000000000000000000000000000000000600052603260045260246000fd5b6020026020010151858381518110610851577f4e487b7100000000000000000000000000000000000000000000000000000000600052603260045260246000fd5b6020026020010151610335565b828281518110610897577f4e487b7100000000000000000000000000000000000000000000000000000000600052603260045260246000fd5b602002602001018181525050806108ad90612d6b565b90506107cb565b508091505092915050565b6108c7610fa3565b73ffffffffffffffffffffffffffffffffffffffff166108e5610947565b73ffffffffffffffffffffffffffffffffffffffff161461093b576040517f08c379a000000000000000000000000000000000000000000000000000000000815260040161093290612974565b60405180910390fd5b610945600061130b565b565b6000600360009054906101000a900473ffffffffffffffffffffffffffffffffffffffff16905090565b6005805461097e90612d08565b80601f01602080910402602001604051908101604052809291908181526020018280546109aa90612d08565b80156109f75780601f106109cc576101008083540402835291602001916109f7565b820191906000526020600020905b8154815290600101906020018083116109da57829003601f168201915b505050505081565b60078054610a0c90612d08565b80601f0160208091040260200160405190810160405280929190818152602001828054610a3890612d08565b8015610a855780601f10610a5a57610100808354040283529160200191610a85565b820191906000526020600020905b815481529060010190602001808311610a6857829003601f168201915b505050505081565b60065481565b610a9b610fa3565b73ffffffffffffffffffffffffffffffffffffffff16610ab9610947565b73ffffffffffffffffffffffffffffffffffffffff1614610b0f576040517f08c379a0000000000000000000000000000000000000000000000000000000008152600401610b0690612974565b60405180910390fd5b600160066000828254610b229190612b97565b92505081905550610b463360065483604051806020016040528060008152506113d1565b50565b610b5b610b54610fa3565b8383611567565b5050565b6000600160008473ffffffffffffffffffffffffffffffffffffffff1673ffffffffffffffffffffffffffffffffffffffff16815260200190815260200160002060008373ffffffffffffffffffffffffffffffffffffffff1673ffffffffffffffffffffffffffffffffffffffff16815260200190815260200160002060009054906101000a900460ff16905092915050565b610bfb610fa3565b73ffffffffffffffffffffffffffffffffffffffff168573ffffffffffffffffffffffffffffffffffffffff161480610c415750610c4085610c3b610fa3565b610b5f565b5b610c80576040517f08c379a0000000000000000000000000000000000000000000000000000000008152600401610c77906128f4565b60405180910390fd5b610c8d85858585856116d4565b5050505050565b610c9c610fa3565b73ffffffffffffffffffffffffffffffffffffffff16610cba610947565b73ffffffffffffffffffffffffffffffffffffffff1614610d10576040517f08c379a0000000000000000000000000000000000000000000000000000000008152600401610d0790612974565b60405180910390fd5b600073ffffffffffffffffffffffffffffffffffffffff168173ffffffffffffffffffffffffffffffffffffffff161415610d80576040517f08c379a0000000000000000000000000000000000000000000000000000000008152600401610d77906128d4565b60405180910390fd5b610d898161130b565b50565b60007f01ffc9a7000000000000000000000000000000000000000000000000000000007bffffffffffffffffffffffffffffffffffffffffffffffffffffffff1916827bffffffffffffffffffffffffffffffffffffffffffffffffffffffff1916149050919050565b60606000821415610e3e576040518060400160405280600181526020017f30000000000000000000000000000000000000000000000000000000000000008152509050610f9e565b600082905060005b60008214610e70578080610e5990612d6b565b915050600a82610e699190612bed565b9150610e46565b60008167ffffffffffffffff811115610eb2577f4e487b7100000000000000000000000000000000000000000000000000000000600052604160045260246000fd5b6040519080825280601f01601f191660200182016040528015610ee45781602001600182028036833780820191505090505b5090505b60008514610f9757600182610efd9190612c1e565b9150600a85610f0c9190612db4565b6030610f189190612b97565b60f81b818381518110610f54577f4e487b7100000000000000000000000000000000000000000000000000000000600052603260045260246000fd5b60200101907effffffffffffffffffffffffffffffffffffffffffffffffffffffffffffff1916908160001a905350600a85610f909190612bed565b9450610ee8565b8093505050505b919050565b600033905090565b8151835114610fef576040517f08c379a0000000000000000000000000000000000000000000000000000000008152600401610fe6906129d4565b60405180910390fd5b600073ffffffffffffffffffffffffffffffffffffffff168473ffffffffffffffffffffffffffffffffffffffff16141561105f576040517f08c379a000000000000000000000000000000000000000000000000000000000815260040161105690612914565b60405180910390fd5b6000611069610fa3565b9050611079818787878787611956565b60005b84518110156112765760008582815181106110c0577f4e487b7100000000000000000000000000000000000000000000000000000000600052603260045260246000fd5b602002602001015190506000858381518110611105577f4e487b7100000000000000000000000000000000000000000000000000000000600052603260045260246000fd5b60200260200101519050600080600084815260200190815260200160002060008b73ffffffffffffffffffffffffffffffffffffffff1673ffffffffffffffffffffffffffffffffffffffff168152602001908152602001600020549050818110156111a6576040517f08c379a000000000000000000000000000000000000000000000000000000000815260040161119d90612954565b60405180910390fd5b81810360008085815260200190815260200160002060008c73ffffffffffffffffffffffffffffffffffffffff1673ffffffffffffffffffffffffffffffffffffffff168152602001908152602001600020819055508160008085815260200190815260200160002060008b73ffffffffffffffffffffffffffffffffffffffff1673ffffffffffffffffffffffffffffffffffffffff168152602001908152602001600020600082825461125b9190612b97565b925050819055505050508061126f90612d6b565b905061107c565b508473ffffffffffffffffffffffffffffffffffffffff168673ffffffffffffffffffffffffffffffffffffffff168273ffffffffffffffffffffffffffffffffffffffff167f4a39dc06d4c0dbc64b70af90fd698a233a518aa5d07e595d983b8c0526c8f7fb87876040516112ed929190612800565b60405180910390a461130381878787878761195e565b505050505050565b6000600360009054906101000a900473ffffffffffffffffffffffffffffffffffffffff16905081600360006101000a81548173ffffffffffffffffffffffffffffffffffffffff021916908373ffffffffffffffffffffffffffffffffffffffff1602179055508173ffffffffffffffffffffffffffffffffffffffff168173ffffffffffffffffffffffffffffffffffffffff167f8be0079c531659141344cd1fd0a4f28419497f9722a3daafe3b4186f6b6457e060405160405180910390a35050565b600073ffffffffffffffffffffffffffffffffffffffff168473ffffffffffffffffffffffffffffffffffffffff161415611441576040517f08c379a0000000000000000000000000000000000000000000000000000000008152600401611438906129f4565b60405180910390fd5b600061144b610fa3565b905061146c8160008761145d88611b45565b61146688611b45565b87611956565b8260008086815260200190815260200160002060008773ffffffffffffffffffffffffffffffffffffffff1673ffffffffffffffffffffffffffffffffffffffff16815260200190815260200160002060008282546114cb9190612b97565b925050819055508473ffffffffffffffffffffffffffffffffffffffff16600073ffffffffffffffffffffffffffffffffffffffff168273ffffffffffffffffffffffffffffffffffffffff167fc3d58168c5ae7397731d063d5bbf3d657854427343f4c083240f7aacaa2d0f628787604051611549929190612a2f565b60405180910390a461156081600087878787611c0b565b5050505050565b8173ffffffffffffffffffffffffffffffffffffffff168373ffffffffffffffffffffffffffffffffffffffff1614156115d6576040517f08c379a00000000000000000000000000000000000000000000000000000000081526004016115cd90612994565b60405180910390fd5b80600160008573ffffffffffffffffffffffffffffffffffffffff1673ffffffffffffffffffffffffffffffffffffffff16815260200190815260200160002060008473ffffffffffffffffffffffffffffffffffffffff1673ffffffffffffffffffffffffffffffffffffffff16815260200190815260200160002060006101000a81548160ff0219169083151502179055508173ffffffffffffffffffffffffffffffffffffffff168373ffffffffffffffffffffffffffffffffffffffff167f17307eab39ab6107e8899845ad3d59bd9653f200f220920489ca2b5937696c31836040516116c79190612837565b60405180910390a3505050565b600073ffffffffffffffffffffffffffffffffffffffff168473ffffffffffffffffffffffffffffffffffffffff161415611744576040517f08c379a000000000000000000000000000000000000000000000000000000000815260040161173b90612914565b60405180910390fd5b600061174e610fa3565b905061176e81878761175f88611b45565b61176888611b45565b87611956565b600080600086815260200190815260200160002060008873ffffffffffffffffffffffffffffffffffffffff1673ffffffffffffffffffffffffffffffffffffffff16815260200190815260200160002054905083811015611805576040517f08c379a00000000000000000000000000000000000000000000000000000000081526004016117fc90612954565b60405180910390fd5b83810360008087815260200190815260200160002060008973ffffffffffffffffffffffffffffffffffffffff1673ffffffffffffffffffffffffffffffffffffffff168152602001908152602001600020819055508360008087815260200190815260200160002060008873ffffffffffffffffffffffffffffffffffffffff1673ffffffffffffffffffffffffffffffffffffffff16815260200190815260200160002060008282546118ba9190612b97565b925050819055508573ffffffffffffffffffffffffffffffffffffffff168773ffffffffffffffffffffffffffffffffffffffff168373ffffffffffffffffffffffffffffffffffffffff167fc3d58168c5ae7397731d063d5bbf3d657854427343f4c083240f7aacaa2d0f628888604051611937929190612a2f565b60405180910390a461194d828888888888611c0b565b50505050505050565b505050505050565b61197d8473ffffffffffffffffffffffffffffffffffffffff16611df2565b15611b3d578373ffffffffffffffffffffffffffffffffffffffff1663bc197c8187878686866040518663ffffffff1660e01b81526004016119c395949392919061271c565b602060405180830381600087803b1580156119dd57600080fd5b505af1925050508015611a0e57506040513d601f19601f82011682018060405250810190611a0b91906122c2565b60015b611ab457611a1a612ea1565b806308c379a01415611a775750611a2f6132e7565b80611a3a5750611a79565b806040517f08c379a0000000000000000000000000000000000000000000000000000000008152600401611a6e9190612852565b60405180910390fd5b505b6040517f08c379a0000000000000000000000000000000000000000000000000000000008152600401611aab90612874565b60405180910390fd5b63bc197c8160e01b7bffffffffffffffffffffffffffffffffffffffffffffffffffffffff1916817bffffffffffffffffffffffffffffffffffffffffffffffffffffffff191614611b3b576040517f08c379a0000000000000000000000000000000000000000000000000000000008152600401611b3290612894565b60405180910390fd5b505b505050505050565b60606000600167ffffffffffffffff811115611b8a577f4e487b7100000000000000000000000000000000000000000000000000000000600052604160045260246000fd5b604051908082528060200260200182016040528015611bb85781602001602082028036833780820191505090505b5090508281600081518110611bf6577f4e487b7100000000000000000000000000000000000000000000000000000000600052603260045260246000fd5b60200260200101818152505080915050919050565b611c2a8473ffffffffffffffffffffffffffffffffffffffff16611df2565b15611dea578373ffffffffffffffffffffffffffffffffffffffff1663f23a6e6187878686866040518663ffffffff1660e01b8152600401611c70959493929190612784565b602060405180830381600087803b158015611c8a57600080fd5b505af1925050508015611cbb57506040513d601f19601f82011682018060405250810190611cb891906122c2565b60015b611d6157611cc7612ea1565b806308c379a01415611d245750611cdc6132e7565b80611ce75750611d26565b806040517f08c379a0000000000000000000000000000000000000000000000000000000008152600401611d1b9190612852565b60405180910390fd5b505b6040517f08c379a0000000000000000000000000000000000000000000000000000000008152600401611d5890612874565b60405180910390fd5b63f23a6e6160e01b7bffffffffffffffffffffffffffffffffffffffffffffffffffffffff1916817bffffffffffffffffffffffffffffffffffffffffffffffffffffffff191614611de8576040517f08c379a0000000000000000000000000000000000000000000000000000000008152600401611ddf90612894565b60405180910390fd5b505b505050505050565b600080823b905060008111915050919050565b6000611e18611e1384612a7d565b612a58565b90508083825260208201905082856020860282011115611e3757600080fd5b60005b85811015611e675781611e4d8882611f1b565b845260208401935060208301925050600181019050611e3a565b5050509392505050565b6000611e84611e7f84612aa9565b612a58565b90508083825260208201905082856020860282011115611ea357600080fd5b60005b85811015611ed35781611eb98882611fed565b845260208401935060208301925050600181019050611ea6565b5050509392505050565b6000611ef0611eeb84612ad5565b612a58565b905082815260208101848484011115611f0857600080fd5b611f13848285612cc6565b509392505050565b600081359050611f2a8161337d565b92915050565b600082601f830112611f4157600080fd5b8135611f51848260208601611e05565b91505092915050565b600082601f830112611f6b57600080fd5b8135611f7b848260208601611e71565b91505092915050565b600081359050611f9381613394565b92915050565b600081359050611fa8816133ab565b92915050565b600081519050611fbd816133ab565b92915050565b600082601f830112611fd457600080fd5b8135611fe4848260208601611edd565b91505092915050565b600081359050611ffc816133c2565b92915050565b60006020828403121561201457600080fd5b600061202284828501611f1b565b91505092915050565b6000806040838503121561203e57600080fd5b600061204c85828601611f1b565b925050602061205d85828601611f1b565b9150509250929050565b600080600080600060a0868803121561207f57600080fd5b600061208d88828901611f1b565b955050602061209e88828901611f1b565b945050604086013567ffffffffffffffff8111156120bb57600080fd5b6120c788828901611f5a565b935050606086013567ffffffffffffffff8111156120e457600080fd5b6120f088828901611f5a565b925050608086013567ffffffffffffffff81111561210d57600080fd5b61211988828901611fc3565b9150509295509295909350565b600080600080600060a0868803121561213e57600080fd5b600061214c88828901611f1b565b955050602061215d88828901611f1b565b945050604061216e88828901611fed565b935050606061217f88828901611fed565b925050608086013567ffffffffffffffff81111561219c57600080fd5b6121a888828901611fc3565b9150509295509295909350565b600080604083850312156121c857600080fd5b60006121d685828601611f1b565b92505060206121e785828601611f84565b9150509250929050565b6000806040838503121561220457600080fd5b600061221285828601611f1b565b925050602061222385828601611fed565b9150509250929050565b6000806040838503121561224057600080fd5b600083013567ffffffffffffffff81111561225a57600080fd5b61226685828601611f30565b925050602083013567ffffffffffffffff81111561228357600080fd5b61228f85828601611f5a565b9150509250929050565b6000602082840312156122ab57600080fd5b60006122b984828501611f99565b91505092915050565b6000602082840312156122d457600080fd5b60006122e284828501611fae565b91505092915050565b6000602082840312156122fd57600080fd5b600061230b84828501611fed565b91505092915050565b600061232083836126b4565b60208301905092915050565b61233581612c52565b82525050565b600061234682612b2b565b6123508185612b59565b935061235b83612b06565b8060005b8381101561238c5781516123738882612314565b975061237e83612b4c565b92505060018101905061235f565b5085935050505092915050565b6123a281612c64565b82525050565b60006123b382612b36565b6123bd8185612b6a565b93506123cd818560208601612cd5565b6123d681612ec3565b840191505092915050565b60006123ec82612b41565b6123f68185612b7b565b9350612406818560208601612cd5565b61240f81612ec3565b840191505092915050565b600061242582612b41565b61242f8185612b8c565b935061243f818560208601612cd5565b80840191505092915050565b6000815461245881612d08565b6124628186612b8c565b9450600182166000811461247d576001811461248e576124c1565b60ff198316865281860193506124c1565b61249785612b16565b60005b838110156124b95781548189015260018201915060208101905061249a565b838801955050505b50505092915050565b60006124d7603483612b7b565b91506124e282612ee1565b604082019050919050565b60006124fa602883612b7b565b915061250582612f30565b604082019050919050565b600061251d602b83612b7b565b915061252882612f7f565b604082019050919050565b6000612540602683612b7b565b915061254b82612fce565b604082019050919050565b6000612563602983612b7b565b915061256e8261301d565b604082019050919050565b6000612586602583612b7b565b91506125918261306c565b604082019050919050565b60006125a9603283612b7b565b91506125b4826130bb565b604082019050919050565b60006125cc602a83612b7b565b91506125d78261310a565b604082019050919050565b60006125ef600583612b8c565b91506125fa82613159565b600582019050919050565b6000612612602083612b7b565b915061261d82613182565b602082019050919050565b6000612635602983612b7b565b9150612640826131ab565b604082019050919050565b6000612658602983612b7b565b9150612663826131fa565b604082019050919050565b600061267b602883612b7b565b915061268682613249565b604082019050919050565b600061269e602183612b7b565b91506126a982613298565b604082019050919050565b6126bd81612cbc565b82525050565b6126cc81612cbc565b82525050565b60006126de828561244b565b91506126ea828461241a565b91506126f5826125e2565b91508190509392505050565b6000602082019050612716600083018461232c565b92915050565b600060a082019050612731600083018861232c565b61273e602083018761232c565b8181036040830152612750818661233b565b90508181036060830152612764818561233b565b9050818103608083015261277881846123a8565b90509695505050505050565b600060a082019050612799600083018861232c565b6127a6602083018761232c565b6127b360408301866126c3565b6127c060608301856126c3565b81810360808301526127d281846123a8565b90509695505050505050565b600060208201905081810360008301526127f8818461233b565b905092915050565b6000604082019050818103600083015261281a818561233b565b9050818103602083015261282e818461233b565b90509392505050565b600060208201905061284c6000830184612399565b92915050565b6000602082019050818103600083015261286c81846123e1565b905092915050565b6000602082019050818103600083015261288d816124ca565b9050919050565b600060208201905081810360008301526128ad816124ed565b9050919050565b600060208201905081810360008301526128cd81612510565b9050919050565b600060208201905081810360008301526128ed81612533565b9050919050565b6000602082019050818103600083015261290d81612556565b9050919050565b6000602082019050818103600083015261292d81612579565b9050919050565b6000602082019050818103600083015261294d8161259c565b9050919050565b6000602082019050818103600083015261296d816125bf565b9050919050565b6000602082019050818103600083015261298d81612605565b9050919050565b600060208201905081810360008301526129ad81612628565b9050919050565b600060208201905081810360008301526129cd8161264b565b9050919050565b600060208201905081810360008301526129ed8161266e565b9050919050565b60006020820190508181036000830152612a0d81612691565b9050919050565b6000602082019050612a2960008301846126c3565b92915050565b6000604082019050612a4460008301856126c3565b612a5160208301846126c3565b9392505050565b6000612a62612a73565b9050612a6e8282612d3a565b919050565b6000604051905090565b600067ffffffffffffffff821115612a9857612a97612e72565b5b602082029050602081019050919050565b600067ffffffffffffffff821115612ac457612ac3612e72565b5b602082029050602081019050919050565b600067ffffffffffffffff821115612af057612aef612e72565b5b612af982612ec3565b9050602081019050919050565b6000819050602082019050919050565b60008190508160005260206000209050919050565b600081519050919050565b600081519050919050565b600081519050919050565b6000602082019050919050565b600082825260208201905092915050565b600082825260208201905092915050565b600082825260208201905092915050565b600081905092915050565b6000612ba282612cbc565b9150612bad83612cbc565b9250827fffffffffffffffffffffffffffffffffffffffffffffffffffffffffffffffff03821115612be257612be1612de5565b5b828201905092915050565b6000612bf882612cbc565b9150612c0383612cbc565b925082612c1357612c12612e14565b5b828204905092915050565b6000612c2982612cbc565b9150612c3483612cbc565b925082821015612c4757612c46612de5565b5b828203905092915050565b6000612c5d82612c9c565b9050919050565b60008115159050919050565b60007fffffffff0000000000000000000000000000000000000000000000000000000082169050919050565b600073ffffffffffffffffffffffffffffffffffffffff82169050919050565b6000819050919050565b82818337600083830152505050565b60005b83811015612cf3578082015181840152602081019050612cd8565b83811115612d02576000848401525b50505050565b60006002820490506001821680612d2057607f821691505b60208210811415612d3457612d33612e43565b5b50919050565b612d4382612ec3565b810181811067ffffffffffffffff82111715612d6257612d61612e72565b5b80604052505050565b6000612d7682612cbc565b91507fffffffffffffffffffffffffffffffffffffffffffffffffffffffffffffffff821415612da957612da8612de5565b5b600182019050919050565b6000612dbf82612cbc565b9150612dca83612cbc565b925082612dda57612dd9612e14565b5b828206905092915050565b7f4e487b7100000000000000000000000000000000000000000000000000000000600052601160045260246000fd5b7f4e487b7100000000000000000000000000000000000000000000000000000000600052601260045260246000fd5b7f4e487b7100000000000000000000000000000000000000000000000000000000600052602260045260246000fd5b7f4e487b7100000000000000000000000000000000000000000000000000000000600052604160045260246000fd5b600060033d1115612ec05760046000803e612ebd600051612ed4565b90505b90565b6000601f19601f8301169050919050565b60008160e01c9050919050565b7f455243313135353a207472616e7366657220746f206e6f6e204552433131353560008201527f526563656976657220696d706c656d656e746572000000000000000000000000602082015250565b7f455243313135353a204552433131353552656365697665722072656a6563746560008201527f6420746f6b656e73000000000000000000000000000000000000000000000000602082015250565b7f455243313135353a2062616c616e636520717565727920666f7220746865207a60008201527f65726f2061646472657373000000000000000000000000000000000000000000602082015250565b7f4f776e61626c653a206e6577206f776e657220697320746865207a65726f206160008201527f6464726573730000000000000000000000000000000000000000000000000000602082015250565b7f455243313135353a2063616c6c6572206973206e6f74206f776e6572206e6f7260008201527f20617070726f7665640000000000000000000000000000000000000000000000602082015250565b7f455243313135353a207472616e7366657220746f20746865207a65726f20616460008201527f6472657373000000000000000000000000000000000000000000000000000000602082015250565b7f455243313135353a207472616e736665722063616c6c6572206973206e6f742060008201527f6f776e6572206e6f7220617070726f7665640000000000000000000000000000602082015250565b7f455243313135353a20696e73756666696369656e742062616c616e636520666f60008201527f72207472616e7366657200000000000000000000000000000000000000000000602082015250565b7f2e6a736f6e000000000000000000000000000000000000000000000000000000600082015250565b7f4f776e61626c653a2063616c6c6572206973206e6f7420746865206f776e6572600082015250565b7f455243313135353a2073657474696e6720617070726f76616c2073746174757360008201527f20666f722073656c660000000000000000000000000000000000000000000000602082015250565b7f455243313135353a206163636f756e747320616e6420696473206c656e67746860008201527f206d69736d617463680000000000000000000000000000000000000000000000602082015250565b7f455243313135353a2069647320616e6420616d6f756e7473206c656e6774682060008201527f6d69736d61746368000000000000000000000000000000000000000000000000602082015250565b7f455243313135353a206d696e7420746f20746865207a65726f2061646472657360008201527f7300000000000000000000000000000000000000000000000000000000000000602082015250565b600060443d10156132f75761337a565b6132ff612a73565b60043d036004823e80513d602482011167ffffffffffffffff8211171561332757505061337a565b808201805167ffffffffffffffff811115613345575050505061337a565b80602083010160043d03850181111561336257505050505061337a565b61337182602001850186612d3a565b82955050505050505b90565b61338681612c52565b811461339157600080fd5b50565b61339d81612c64565b81146133a857600080fd5b50565b6133b481612c70565b81146133bf57600080fd5b50565b6133cb81612cbc565b81146133d657600080fd5b5056fea264697066735822122085df1c38522c61f9cd2a90f9f71194dbc30347d7214fbd7e5a6ff6ac18be144b64736f6c6343000802003368747470733a2f2f697066732e696f2f697066732f516d5a443975474c6b5a3668463957726477644a4d45356452546f5a346f72464a577a47585753396f31344457332f62672e6a736f6e",
  "linkReferences": {},
  "deployedLinkReferences": {}
}