{
  "contractName": "Vote",
  "abi": [
    {
      "inputs": [],
      "stateMutability": "nonpayable",
      "type": "constructor"
    },
    {
      "inputs": [],
      "name": "admin",
      "outputs": [
        {
          "internalType": "address",
          "name": "",
          "type": "address"
        }
      ],
      "stateMutability": "view",
      "type": "function",
      "constant": true
    },
    {
      "inputs": [
        {
          "internalType": "address",
          "name": "",
          "type": "address"
        }
      ],
      "name": "hasVoted",
      "outputs": [
        {
          "internalType": "bool",
          "name": "",
          "type": "bool"
        }
      ],
      "stateMutability": "view",
      "type": "function",
      "constant": true
    },
    {
      "inputs": [
        {
          "internalType": "uint256",
          "name": "voteNum",
          "type": "uint256"
        }
      ],
      "name": "vote",
      "outputs": [],
      "stateMutability": "nonpayable",
      "type": "function"
    },
    {
      "inputs": [
        {
          "internalType": "uint256",
          "name": "voteIndex",
          "type": "uint256"
        }
      ],
      "name": "getNum",
      "outputs": [
        {
          "internalType": "uint256",
          "name": "",
          "type": "uint256"
        }
      ],
      "stateMutability": "view",
      "type": "function",
      "constant": true
    }
  ],
  "bytecode": "0x608060405234801561001057600080fd5b5033600260006101000a81548173ffffffffffffffffffffffffffffffffffffffff021916908373ffffffffffffffffffffffffffffffffffffffff160217905550600060016000808152602001908152602001600020819055506000600160006001815260200190815260200160002081905550610440806100946000396000f3fe608060405234801561001057600080fd5b506004361061004c5760003560e01c80630121b93f1461005157806309eef43e1461006d578063f3358ac41461009d578063f851a440146100cd575b600080fd5b61006b60048036038101906100669190610275565b6100eb565b005b6100876004803603810190610082919061024c565b6101bf565b60405161009491906102e6565b60405180910390f35b6100b760048036038101906100b29190610275565b6101df565b6040516100c49190610301565b60405180910390f35b6100d56101fc565b6040516100e291906102cb565b60405180910390f35b6000803373ffffffffffffffffffffffffffffffffffffffff1673ffffffffffffffffffffffffffffffffffffffff16815260200190815260200160002060009054906101000a900460ff166101bc5760016000828152602001908152602001600020600081548092919061015f90610364565b919050555060016000803373ffffffffffffffffffffffffffffffffffffffff1673ffffffffffffffffffffffffffffffffffffffff16815260200190815260200160002060006101000a81548160ff0219169083151502179055505b50565b60006020528060005260406000206000915054906101000a900460ff1681565b600060016000838152602001908152602001600020549050919050565b600260009054906101000a900473ffffffffffffffffffffffffffffffffffffffff1681565b600081359050610231816103dc565b92915050565b600081359050610246816103f3565b92915050565b60006020828403121561025e57600080fd5b600061026c84828501610222565b91505092915050565b60006020828403121561028757600080fd5b600061029584828501610237565b91505092915050565b6102a78161031c565b82525050565b6102b68161032e565b82525050565b6102c58161035a565b82525050565b60006020820190506102e0600083018461029e565b92915050565b60006020820190506102fb60008301846102ad565b92915050565b600060208201905061031660008301846102bc565b92915050565b60006103278261033a565b9050919050565b60008115159050919050565b600073ffffffffffffffffffffffffffffffffffffffff82169050919050565b6000819050919050565b600061036f8261035a565b91507fffffffffffffffffffffffffffffffffffffffffffffffffffffffffffffffff8214156103a2576103a16103ad565b5b600182019050919050565b7f4e487b7100000000000000000000000000000000000000000000000000000000600052601160045260246000fd5b6103e58161031c565b81146103f057600080fd5b50565b6103fc8161035a565b811461040757600080fd5b5056fea26469706673582212209f82f243de56e9e3b3793ed63a92e1b2fde2b05cc54dd5f613cb325e6e0bdc3164736f6c63430008040033",
  "immutableReferences": {},
  "source": "// SPDX-License-Identifier: MIT\npragma solidity ^0.8.2;\n\n\ncontract Vote {\n  mapping(address => bool) public hasVoted;\n  mapping(uint => uint) voteAmount;\n\n  address public admin;\n\n  constructor(){\n    admin = msg.sender;\n    voteAmount[0] = 0;\n    voteAmount[1] = 0;\n  }\n\n  function vote(uint voteNum ) external{\n    if(!hasVoted[msg.sender]){\n      voteAmount[voteNum]++;\n      hasVoted[msg.sender] = true;\n    }\n  }\n\n  function getNum(uint voteIndex) external view returns(uint){\n    return voteAmount[voteIndex];\n  }\n\n\n  modifier onlyAdmin() {\n    require(msg.sender == admin, 'only admin');\n    _;\n  }\n}",
  "sourcePath": "/Users/hao/Desktop/INFO7500_Material/public-benefit-DAO/contracts/Vote.sol",
  "compiler": {
    "name": "solc",
    "version": "0.8.4+commit.c7e474f2.Emscripten.clang"
  },
  "schemaVersion": "3.4.1",
  "updatedAt": "2021-12-10T17:04:04.888Z",
  "networkType": "ethereum",
  "devdoc": {
    "kind": "dev",
    "methods": {},
    "version": 1
  },
  "userdoc": {
    "kind": "user",
    "methods": {},
    "version": 1
  }
}