{
  "_format": "hh-sol-artifact-1",
  "contractName": "DAO",
  "sourceName": "contracts/DAO.sol",
  "abi": [
    {
      "inputs": [],
      "stateMutability": "nonpayable",
      "type": "constructor"
    },
    {
      "anonymous": false,
      "inputs": [
        {
          "indexed": true,
          "internalType": "address",
          "name": "previousOwner",
          "type": "address"
        },
        {
          "indexed": true,
          "internalType": "address",
          "name": "newOwner",
          "type": "address"
        }
      ],
      "name": "OwnershipTransferred",
      "type": "event"
    },
    {
      "inputs": [
        {
          "internalType": "string",
          "name": "_desc",
          "type": "string"
        },
        {
          "internalType": "uint256",
          "name": "_credit",
          "type": "uint256"
        }
      ],
      "name": "createTask",
      "outputs": [],
      "stateMutability": "nonpayable",
      "type": "function"
    },
    {
      "inputs": [
        {
          "internalType": "uint256",
          "name": "_id",
          "type": "uint256"
        },
        {
          "internalType": "address",
          "name": "_taker",
          "type": "address"
        }
      ],
      "name": "finishTask",
      "outputs": [],
      "stateMutability": "nonpayable",
      "type": "function"
    },
    {
      "inputs": [],
      "name": "owner",
      "outputs": [
        {
          "internalType": "address",
          "name": "",
          "type": "address"
        }
      ],
      "stateMutability": "view",
      "type": "function"
    },
    {
      "inputs": [],
      "name": "renounceOwnership",
      "outputs": [],
      "stateMutability": "nonpayable",
      "type": "function"
    },
    {
      "inputs": [
        {
          "internalType": "uint256",
          "name": "_id",
          "type": "uint256"
        },
        {
          "internalType": "string",
          "name": "_detailLink",
          "type": "string"
        }
      ],
      "name": "submitProposal",
      "outputs": [],
      "stateMutability": "nonpayable",
      "type": "function"
    },
    {
      "inputs": [
        {
          "internalType": "address",
          "name": "newOwner",
          "type": "address"
        }
      ],
      "name": "transferOwnership",
      "outputs": [],
      "stateMutability": "nonpayable",
      "type": "function"
    }
  ],
  "bytecode": "0x608060405234801561001057600080fd5b5061002d61002261003a60201b60201c565b61004260201b60201c565b6000600281905550610106565b600033905090565b60008060009054906101000a900473ffffffffffffffffffffffffffffffffffffffff169050816000806101000a81548173ffffffffffffffffffffffffffffffffffffffff021916908373ffffffffffffffffffffffffffffffffffffffff1602179055508173ffffffffffffffffffffffffffffffffffffffff168173ffffffffffffffffffffffffffffffffffffffff167f8be0079c531659141344cd1fd0a4f28419497f9722a3daafe3b4186f6b6457e060405160405180910390a35050565b610d0b806101156000396000f3fe608060405234801561001057600080fd5b50600436106100625760003560e01c806304fe2b3414610067578063230aac55146100835780636e5604361461009f578063715018a6146100bb5780638da5cb5b146100c5578063f2fde38b146100e3575b600080fd5b610081600480360381019061007c9190610826565b6100ff565b005b61009d600480360381019061009891906108b6565b6101db565b005b6100b960048036038101906100b4919061087a565b6102c0565b005b6100c3610453565b005b6100cd6104db565b6040516100da9190610982565b60405180910390f35b6100fd60048036038101906100f891906107fd565b610504565b005b6101076105fc565b73ffffffffffffffffffffffffffffffffffffffff166101256104db565b73ffffffffffffffffffffffffffffffffffffffff161461017b576040517f08c379a0000000000000000000000000000000000000000000000000000000008152600401610172906109dd565b60405180910390fd5b600060016000600254815260200190815260200160002090506002548160000181905550828160010190805190602001906101b79291906106c8565b50818160020181905550600a6002546101d09190610a64565b600281905550505050565b81600254811080156102145750600015156001600083815260200190815260200160002060040160009054906101000a900460ff161515145b610253576040517f08c379a000000000000000000000000000000000000000000000000000000000815260040161024a906109bd565b60405180910390fd5b816001600085815260200190815260200160002060030160003373ffffffffffffffffffffffffffffffffffffffff1673ffffffffffffffffffffffffffffffffffffffff16815260200190815260200160002090805190602001906102ba9291906106c8565b50505050565b6102c86105fc565b73ffffffffffffffffffffffffffffffffffffffff166102e66104db565b73ffffffffffffffffffffffffffffffffffffffff161461033c576040517f08c379a0000000000000000000000000000000000000000000000000000000008152600401610333906109dd565b60405180910390fd5b81600254811080156103755750600015156001600083815260200190815260200160002060040160009054906101000a900460ff161515145b6103b4576040517f08c379a00000000000000000000000000000000000000000000000000000000081526004016103ab906109bd565b60405180910390fd5b600180600085815260200190815260200160002060040160006101000a81548160ff0219169083151502179055506001600084815260200190815260200160002060020154600360008473ffffffffffffffffffffffffffffffffffffffff1673ffffffffffffffffffffffffffffffffffffffff16815260200190815260200160002060008282546104479190610a64565b92505081905550505050565b61045b6105fc565b73ffffffffffffffffffffffffffffffffffffffff166104796104db565b73ffffffffffffffffffffffffffffffffffffffff16146104cf576040517f08c379a00000000000000000000000000000000000000000000000000000000081526004016104c6906109dd565b60405180910390fd5b6104d96000610604565b565b60008060009054906101000a900473ffffffffffffffffffffffffffffffffffffffff16905090565b61050c6105fc565b73ffffffffffffffffffffffffffffffffffffffff1661052a6104db565b73ffffffffffffffffffffffffffffffffffffffff1614610580576040517f08c379a0000000000000000000000000000000000000000000000000000000008152600401610577906109dd565b60405180910390fd5b600073ffffffffffffffffffffffffffffffffffffffff168173ffffffffffffffffffffffffffffffffffffffff1614156105f0576040517f08c379a00000000000000000000000000000000000000000000000000000000081526004016105e79061099d565b60405180910390fd5b6105f981610604565b50565b600033905090565b60008060009054906101000a900473ffffffffffffffffffffffffffffffffffffffff169050816000806101000a81548173ffffffffffffffffffffffffffffffffffffffff021916908373ffffffffffffffffffffffffffffffffffffffff1602179055508173ffffffffffffffffffffffffffffffffffffffff168173ffffffffffffffffffffffffffffffffffffffff167f8be0079c531659141344cd1fd0a4f28419497f9722a3daafe3b4186f6b6457e060405160405180910390a35050565b8280546106d490610b05565b90600052602060002090601f0160209004810192826106f6576000855561073d565b82601f1061070f57805160ff191683800117855561073d565b8280016001018555821561073d579182015b8281111561073c578251825591602001919060010190610721565b5b50905061074a919061074e565b5090565b5b8082111561076757600081600090555060010161074f565b5090565b600061077e61077984610a22565b6109fd565b90508281526020810184848401111561079657600080fd5b6107a1848285610af6565b509392505050565b6000813590506107b881610ca7565b92915050565b600082601f8301126107cf57600080fd5b81356107df84826020860161076b565b91505092915050565b6000813590506107f781610cbe565b92915050565b60006020828403121561080f57600080fd5b600061081d848285016107a9565b91505092915050565b6000806040838503121561083957600080fd5b600083013567ffffffffffffffff81111561085357600080fd5b61085f858286016107be565b9250506020610870858286016107e8565b9150509250929050565b6000806040838503121561088d57600080fd5b600061089b858286016107e8565b92505060206108ac858286016107a9565b9150509250929050565b600080604083850312156108c957600080fd5b60006108d7858286016107e8565b925050602083013567ffffffffffffffff8111156108f457600080fd5b610900858286016107be565b9150509250929050565b61091381610aba565b82525050565b6000610926602683610a53565b915061093182610c06565b604082019050919050565b6000610949601283610a53565b915061095482610c55565b602082019050919050565b600061096c602083610a53565b915061097782610c7e565b602082019050919050565b6000602082019050610997600083018461090a565b92915050565b600060208201905081810360008301526109b681610919565b9050919050565b600060208201905081810360008301526109d68161093c565b9050919050565b600060208201905081810360008301526109f68161095f565b9050919050565b6000610a07610a18565b9050610a138282610b37565b919050565b6000604051905090565b600067ffffffffffffffff821115610a3d57610a3c610bc6565b5b610a4682610bf5565b9050602081019050919050565b600082825260208201905092915050565b6000610a6f82610aec565b9150610a7a83610aec565b9250827fffffffffffffffffffffffffffffffffffffffffffffffffffffffffffffffff03821115610aaf57610aae610b68565b5b828201905092915050565b6000610ac582610acc565b9050919050565b600073ffffffffffffffffffffffffffffffffffffffff82169050919050565b6000819050919050565b82818337600083830152505050565b60006002820490506001821680610b1d57607f821691505b60208210811415610b3157610b30610b97565b5b50919050565b610b4082610bf5565b810181811067ffffffffffffffff82111715610b5f57610b5e610bc6565b5b80604052505050565b7f4e487b7100000000000000000000000000000000000000000000000000000000600052601160045260246000fd5b7f4e487b7100000000000000000000000000000000000000000000000000000000600052602260045260246000fd5b7f4e487b7100000000000000000000000000000000000000000000000000000000600052604160045260246000fd5b6000601f19601f8301169050919050565b7f4f776e61626c653a206e6577206f776e657220697320746865207a65726f206160008201527f6464726573730000000000000000000000000000000000000000000000000000602082015250565b7f5461736b20646f65736e27742065786973740000000000000000000000000000600082015250565b7f4f776e61626c653a2063616c6c6572206973206e6f7420746865206f776e6572600082015250565b610cb081610aba565b8114610cbb57600080fd5b50565b610cc781610aec565b8114610cd257600080fd5b5056fea2646970667358221220fca1ec74e20c825c59d06099706350da59d2682aa2a78237f525f2fa65eb72d664736f6c63430008020033",
  "linkReferences": {},
  "deployedLinkReferences": {}
}